{
  "_format": "hh-sol-artifact-1",
  "contractName": "ETHRegistrarController",
  "sourceName": "contracts/ethregistrar/ETHRegistrarController.sol",
  "abi": [
    {
      "inputs": [
        {
          "internalType": "contract BaseRegistrarImplementation",
          "name": "_base",
          "type": "address"
        },
        {
          "internalType": "contract IPriceOracle",
          "name": "_prices",
          "type": "address"
        },
        {
          "internalType": "uint256",
          "name": "_minCommitmentAge",
          "type": "uint256"
        },
        {
          "internalType": "uint256",
          "name": "_maxCommitmentAge",
          "type": "uint256"
        },
        {
          "internalType": "contract ReverseRegistrar",
          "name": "_reverseRegistrar",
          "type": "address"
        },
        {
          "internalType": "contract INameWrapper",
          "name": "_nameWrapper",
          "type": "address"
        }
      ],
      "stateMutability": "nonpayable",
      "type": "constructor"
    },
    {
      "inputs": [
        {
          "internalType": "bytes32",
          "name": "commitment",
          "type": "bytes32"
        }
      ],
      "name": "CommitmentTooNew",
      "type": "error"
    },
    {
      "inputs": [
        {
          "internalType": "bytes32",
          "name": "commitment",
          "type": "bytes32"
        }
      ],
      "name": "CommitmentTooOld",
      "type": "error"
    },
    {
      "inputs": [
        {
          "internalType": "uint256",
          "name": "duration",
          "type": "uint256"
        }
      ],
      "name": "DurationTooShort",
      "type": "error"
    },
    {
      "inputs": [],
      "name": "InsufficientValue",
      "type": "error"
    },
    {
      "inputs": [],
      "name": "MaxCommitmentAgeTooHigh",
      "type": "error"
    },
    {
      "inputs": [],
      "name": "MaxCommitmentAgeTooLow",
      "type": "error"
    },
    {
      "inputs": [
        {
          "internalType": "string",
          "name": "name",
          "type": "string"
        }
      ],
      "name": "NameNotAvailable",
      "type": "error"
    },
    {
      "inputs": [],
      "name": "ResolverRequiredWhenDataSupplied",
      "type": "error"
    },
    {
      "inputs": [
        {
          "internalType": "bytes32",
          "name": "node",
          "type": "bytes32"
        }
      ],
      "name": "Unauthorised",
      "type": "error"
    },
    {
      "inputs": [
        {
          "internalType": "bytes32",
          "name": "commitment",
          "type": "bytes32"
        }
      ],
      "name": "UnexpiredCommitmentExists",
      "type": "error"
    },
    {
      "anonymous": false,
      "inputs": [
        {
          "indexed": false,
          "internalType": "string",
          "name": "name",
          "type": "string"
        },
        {
          "indexed": true,
          "internalType": "bytes32",
          "name": "label",
          "type": "bytes32"
        },
        {
          "indexed": true,
          "internalType": "address",
          "name": "owner",
          "type": "address"
        },
        {
          "indexed": false,
          "internalType": "uint256",
          "name": "baseCost",
          "type": "uint256"
        },
        {
          "indexed": false,
          "internalType": "uint256",
          "name": "premium",
          "type": "uint256"
        },
        {
          "indexed": false,
          "internalType": "uint256",
          "name": "expires",
          "type": "uint256"
        },
        {
          "indexed": false,
          "internalType": "string",
          "name": "inviteCode",
          "type": "string"
        }
      ],
      "name": "NameRegistered",
      "type": "event"
    },
    {
      "anonymous": false,
      "inputs": [
        {
          "indexed": false,
          "internalType": "string",
          "name": "name",
          "type": "string"
        },
        {
          "indexed": true,
          "internalType": "bytes32",
          "name": "label",
          "type": "bytes32"
        },
        {
          "indexed": false,
          "internalType": "uint256",
          "name": "cost",
          "type": "uint256"
        },
        {
          "indexed": false,
          "internalType": "uint256",
          "name": "expires",
          "type": "uint256"
        }
      ],
      "name": "NameRenewed",
      "type": "event"
    },
    {
      "anonymous": false,
      "inputs": [
        {
          "indexed": true,
          "internalType": "address",
          "name": "previousOwner",
          "type": "address"
        },
        {
          "indexed": true,
          "internalType": "address",
          "name": "newOwner",
          "type": "address"
        }
      ],
      "name": "OwnershipTransferred",
      "type": "event"
    },
    {
      "inputs": [],
      "name": "MIN_REGISTRATION_DURATION",
      "outputs": [
        {
          "internalType": "uint256",
          "name": "",
          "type": "uint256"
        }
      ],
      "stateMutability": "view",
      "type": "function"
    },
    {
      "inputs": [
        {
          "internalType": "string",
          "name": "name",
          "type": "string"
        }
      ],
      "name": "available",
      "outputs": [
        {
          "internalType": "bool",
          "name": "",
          "type": "bool"
        }
      ],
      "stateMutability": "view",
      "type": "function"
    },
    {
      "inputs": [
        {
          "internalType": "bytes32",
          "name": "commitment",
          "type": "bytes32"
        }
      ],
      "name": "commit",
      "outputs": [],
      "stateMutability": "nonpayable",
      "type": "function"
    },
    {
      "inputs": [
        {
          "internalType": "bytes32",
          "name": "",
          "type": "bytes32"
        }
      ],
      "name": "commitments",
      "outputs": [
        {
          "internalType": "uint256",
          "name": "",
          "type": "uint256"
        }
      ],
      "stateMutability": "view",
      "type": "function"
    },
    {
      "inputs": [
        {
          "internalType": "string",
          "name": "name",
          "type": "string"
        },
        {
          "internalType": "address",
          "name": "owner",
          "type": "address"
        },
        {
          "internalType": "uint256",
          "name": "duration",
          "type": "uint256"
        },
        {
          "internalType": "bytes32",
          "name": "secret",
          "type": "bytes32"
        },
        {
          "internalType": "address",
          "name": "resolver",
          "type": "address"
        },
        {
          "internalType": "bytes[]",
          "name": "data",
          "type": "bytes[]"
        },
        {
          "internalType": "bool",
          "name": "reverseRecord",
          "type": "bool"
        },
        {
          "internalType": "uint32",
          "name": "fuses",
          "type": "uint32"
        },
        {
          "internalType": "uint64",
          "name": "wrapperExpiry",
          "type": "uint64"
        }
      ],
      "name": "makeCommitment",
      "outputs": [
        {
          "internalType": "bytes32",
          "name": "",
          "type": "bytes32"
        }
      ],
      "stateMutability": "pure",
      "type": "function"
    },
    {
      "inputs": [],
      "name": "maxCommitmentAge",
      "outputs": [
        {
          "internalType": "uint256",
          "name": "",
          "type": "uint256"
        }
      ],
      "stateMutability": "view",
      "type": "function"
    },
    {
      "inputs": [],
      "name": "minCommitmentAge",
      "outputs": [
        {
          "internalType": "uint256",
          "name": "",
          "type": "uint256"
        }
      ],
      "stateMutability": "view",
      "type": "function"
    },
    {
      "inputs": [],
      "name": "nameWrapper",
      "outputs": [
        {
          "internalType": "contract INameWrapper",
          "name": "",
          "type": "address"
        }
      ],
      "stateMutability": "view",
      "type": "function"
    },
    {
      "inputs": [],
      "name": "owner",
      "outputs": [
        {
          "internalType": "address",
          "name": "",
          "type": "address"
        }
      ],
      "stateMutability": "view",
      "type": "function"
    },
    {
      "inputs": [],
      "name": "prices",
      "outputs": [
        {
          "internalType": "contract IPriceOracle",
          "name": "",
          "type": "address"
        }
      ],
      "stateMutability": "view",
      "type": "function"
    },
    {
      "inputs": [
        {
          "internalType": "address",
          "name": "_token",
          "type": "address"
        },
        {
          "internalType": "address",
          "name": "_to",
          "type": "address"
        },
        {
          "internalType": "uint256",
          "name": "_amount",
          "type": "uint256"
        }
      ],
      "name": "recoverFunds",
      "outputs": [],
      "stateMutability": "nonpayable",
      "type": "function"
    },
    {
      "inputs": [
        {
          "internalType": "string",
          "name": "name",
          "type": "string"
        },
        {
          "internalType": "address",
          "name": "owner",
          "type": "address"
        },
        {
          "internalType": "uint256",
          "name": "duration",
          "type": "uint256"
        },
        {
          "internalType": "bytes32",
          "name": "secret",
          "type": "bytes32"
        },
        {
          "internalType": "address",
          "name": "resolver",
          "type": "address"
        },
        {
          "internalType": "bytes[]",
          "name": "data",
          "type": "bytes[]"
        },
        {
          "internalType": "bool",
          "name": "reverseRecord",
          "type": "bool"
        },
        {
          "internalType": "uint32",
          "name": "fuses",
          "type": "uint32"
        },
        {
          "internalType": "uint64",
          "name": "wrapperExpiry",
          "type": "uint64"
        }
      ],
      "name": "register",
      "outputs": [],
      "stateMutability": "payable",
      "type": "function"
    },
    {
      "inputs": [
        {
          "components": [
            {
              "internalType": "string",
              "name": "name",
              "type": "string"
            },
            {
              "internalType": "address",
              "name": "owner",
              "type": "address"
            },
            {
              "internalType": "uint256",
              "name": "duration",
              "type": "uint256"
            },
            {
              "internalType": "bytes32",
              "name": "secret",
              "type": "bytes32"
            },
            {
              "internalType": "address",
              "name": "resolver",
              "type": "address"
            },
            {
              "internalType": "bytes[]",
              "name": "data",
              "type": "bytes[]"
            },
            {
              "internalType": "bool",
              "name": "reverseRecord",
              "type": "bool"
            },
            {
              "internalType": "uint32",
              "name": "fuses",
              "type": "uint32"
            },
            {
              "internalType": "uint64",
              "name": "wrapperExpiry",
              "type": "uint64"
            },
            {
              "internalType": "string",
              "name": "inviteCode",
              "type": "string"
            }
          ],
          "internalType": "struct IETHRegistrarController.RegisterData",
          "name": "resData",
          "type": "tuple"
        }
      ],
      "name": "registerWithInviteCode",
      "outputs": [],
      "stateMutability": "payable",
      "type": "function"
    },
    {
      "inputs": [
        {
          "internalType": "string",
          "name": "name",
          "type": "string"
        },
        {
          "internalType": "uint256",
          "name": "duration",
          "type": "uint256"
        }
      ],
      "name": "renew",
      "outputs": [],
      "stateMutability": "payable",
      "type": "function"
    },
    {
      "inputs": [
        {
          "internalType": "string",
          "name": "name",
          "type": "string"
        },
        {
          "internalType": "uint256",
          "name": "duration",
          "type": "uint256"
        },
        {
          "internalType": "uint32",
          "name": "fuses",
          "type": "uint32"
        },
        {
          "internalType": "uint64",
          "name": "wrapperExpiry",
          "type": "uint64"
        }
      ],
      "name": "renewWithFuses",
      "outputs": [],
      "stateMutability": "payable",
      "type": "function"
    },
    {
      "inputs": [],
      "name": "renounceOwnership",
      "outputs": [],
      "stateMutability": "nonpayable",
      "type": "function"
    },
    {
      "inputs": [
        {
          "internalType": "string",
          "name": "name",
          "type": "string"
        },
        {
          "internalType": "uint256",
          "name": "duration",
          "type": "uint256"
        }
      ],
      "name": "rentPrice",
      "outputs": [
        {
          "components": [
            {
              "internalType": "uint256",
              "name": "base",
              "type": "uint256"
            },
            {
              "internalType": "uint256",
              "name": "premium",
              "type": "uint256"
            }
          ],
          "internalType": "struct IPriceOracle.Price",
          "name": "price",
          "type": "tuple"
        }
      ],
      "stateMutability": "view",
      "type": "function"
    },
    {
      "inputs": [],
      "name": "reverseRegistrar",
      "outputs": [
        {
          "internalType": "contract ReverseRegistrar",
          "name": "",
          "type": "address"
        }
      ],
      "stateMutability": "view",
      "type": "function"
    },
    {
      "inputs": [
        {
          "internalType": "bytes4",
          "name": "interfaceID",
          "type": "bytes4"
        }
      ],
      "name": "supportsInterface",
      "outputs": [
        {
          "internalType": "bool",
          "name": "",
          "type": "bool"
        }
      ],
      "stateMutability": "pure",
      "type": "function"
    },
    {
      "inputs": [
        {
          "internalType": "address",
          "name": "newOwner",
          "type": "address"
        }
      ],
      "name": "transferOwnership",
      "outputs": [],
      "stateMutability": "nonpayable",
      "type": "function"
    },
    {
      "inputs": [
        {
          "internalType": "string",
          "name": "name",
          "type": "string"
        }
      ],
      "name": "valid",
      "outputs": [
        {
          "internalType": "bool",
          "name": "",
          "type": "bool"
        }
      ],
      "stateMutability": "pure",
      "type": "function"
    },
    {
      "inputs": [],
      "name": "withdraw",
      "outputs": [],
      "stateMutability": "nonpayable",
      "type": "function"
    }
  ],
  "bytecode": "0x6101406040523480156200001257600080fd5b5060405162002bf038038062002bf083398101604081905262000035916200011a565b6200004033620000b1565b83831162000061576040516307cb550760e31b815260040160405180910390fd5b428311156200008357604051630b4319e560e21b815260040160405180910390fd5b6001600160a01b0395861660805293851660a05260c09290925260e052821661010052166101205262000197565b600080546001600160a01b038381166001600160a01b0319831681178455604051919092169283917f8be0079c531659141344cd1fd0a4f28419497f9722a3daafe3b4186f6b6457e09190a35050565b6001600160a01b03811681146200011757600080fd5b50565b60008060008060008060c087890312156200013457600080fd5b8651620001418162000101565b6020880151909650620001548162000101565b8095505060408701519350606087015192506080870151620001768162000101565b60a0880151909250620001898162000101565b809150509295509295509295565b60805160a05160c05160e05161010051610120516129c36200022d600039600081816103ab0152818161070e01528181610bc701528181610e57015261194701526000818161024601526117960152600081816104120152818161139101526115be01526000818161032c015261154701526000818161044601526110a30152600081816110e5015261124501526129c36000f3fe6080604052600436106101755760003560e01c80638d839ffe116100cb578063aeb8ce9b1161007f578063d555254a11610059578063d555254a14610468578063f14fcbc814610488578063f2fde38b146104a857600080fd5b8063aeb8ce9b146103e0578063ce1e09c014610400578063d3419bf31461043457600080fd5b80639791c097116100b05780639791c09714610379578063a8e5fbc014610399578063acf1a841146103cd57600080fd5b80638d839ffe1461031a5780638da5cb5b1461034e57600080fd5b8063715018a61161012d578063839df94511610107578063839df9451461028d57806383e7f6ff146102c85780638a95b09f1461030357600080fd5b8063715018a61461020c5780637acaaf2614610221578063808698531461023457600080fd5b80633ccfd60b1161015e5780633ccfd60b146101c45780635d3590d5146101d95780636459220f146101f957600080fd5b806301ffc9a71461017a57806315a2b739146101af575b600080fd5b34801561018657600080fd5b5061019a610195366004611cd6565b6104c8565b60405190151581526020015b60405180910390f35b6101c26101bd366004611d18565b610561565b005b3480156101d057600080fd5b506101c26109c1565b3480156101e557600080fd5b506101c26101f4366004611d78565b610a0b565b6101c2610207366004611e29565b610b2a565b34801561021857600080fd5b506101c2610c98565b6101c261022f366004611eea565b610d25565b34801561024057600080fd5b506102687f000000000000000000000000000000000000000000000000000000000000000081565b60405173ffffffffffffffffffffffffffffffffffffffff90911681526020016101a6565b34801561029957600080fd5b506102ba6102a8366004611fc3565b60016020526000908152604090205481565b6040519081526020016101a6565b3480156102d457600080fd5b506102e86102e33660046120ba565b611059565b604080518251815260209283015192810192909252016101a6565b34801561030f57600080fd5b506102ba6224ea0081565b34801561032657600080fd5b506102ba7f000000000000000000000000000000000000000000000000000000000000000081565b34801561035a57600080fd5b5060005473ffffffffffffffffffffffffffffffffffffffff16610268565b34801561038557600080fd5b5061019a6103943660046120ff565b6111b9565b3480156103a557600080fd5b506102687f000000000000000000000000000000000000000000000000000000000000000081565b6101c26103db366004612134565b6111ee565b3480156103ec57600080fd5b5061019a6103fb3660046120ff565b6111fc565b34801561040c57600080fd5b506102ba7f000000000000000000000000000000000000000000000000000000000000000081565b34801561044057600080fd5b506102687f000000000000000000000000000000000000000000000000000000000000000081565b34801561047457600080fd5b506102ba610483366004612180565b6112cc565b34801561049457600080fd5b506101c26104a3366004611fc3565b61137a565b3480156104b457600080fd5b506101c26104c3366004612253565b611403565b60007fffffffff0000000000000000000000000000000000000000000000000000000082167f01ffc9a700000000000000000000000000000000000000000000000000000000148061055b57507fffffffff0000000000000000000000000000000000000000000000000000000082167fcadc66b800000000000000000000000000000000000000000000000000000000145b92915050565b60006105ae610570838061226e565b8080601f0160208091040260200160405190810160405280939291908181526020018383808284376000920191909152505050506040840135611059565b602081015181519192506105c191612302565b3410156105fa576040517f1101129400000000000000000000000000000000000000000000000000000000815260040160405180910390fd5b6106f5610607838061226e565b8080601f01602080910402602001604051908101604052809392919081815260200183838082843760009201919091525050505060408401356106f061064d868061226e565b8080601f016020809104026020016040519081016040528093929190818152602001838380828437600092019190915250610692925050506040880160208901612253565b604088013560608901356106ac60a08b0160808c01612253565b6106b960a08c018c612315565b6106c960e08e0160c08f0161237d565b8d60e00160208101906106dc919061239a565b8e61010001602081019061048391906123b5565b611530565b600073ffffffffffffffffffffffffffffffffffffffff7f000000000000000000000000000000000000000000000000000000000000000016639f56dac661073d858061226e565b61074d6040880160208901612253565b604088013561076260a08a0160808b01612253565b6107736101008b0160e08c0161239a565b6107856101208c016101008d016123b5565b6040518863ffffffff1660e01b81526004016107a797969594939291906123fb565b6020604051808303816000875af11580156107c6573d6000803e3d6000fd5b505050506040513d601f19601f820116820180604052508101906107ea9190612465565b905060006107fb60a0850185612315565b905011156108495761084961081660a0850160808601612253565b610820858061226e565b60405161082e92919061247e565b60405190819003902061084460a0870187612315565b6116ad565b61085960e0840160c0850161237d565b156108b6576108b661086b848061226e565b8080601f0160208091040260200160405190810160405280939291908181526020018383808284376000920191909152506108b09250505060a0860160808701612253565b33611794565b6108c66040840160208501612253565b73ffffffffffffffffffffffffffffffffffffffff166108e6848061226e565b6040516108f492919061247e565b6040519081900390207fa57752fffe37273d48c1e8f7fb8863de4f6b0b7c25ba9e9c52b67b7c8ddce7b5610928868061226e565b865160208801518761093e6101208c018c61226e565b604051610951979695949392919061248e565b60405180910390a36020820151825161096a9190612302565b3411156109bc576020820151825133916108fc916109889190612302565b61099290346124d5565b6040518115909202916000818181858888f193505050501580156109ba573d6000803e3d6000fd5b505b505050565b6000805460405173ffffffffffffffffffffffffffffffffffffffff909116914780156108fc02929091818181858888f19350505050158015610a08573d6000803e3d6000fd5b50565b60005473ffffffffffffffffffffffffffffffffffffffff163314610a91576040517f08c379a000000000000000000000000000000000000000000000000000000000815260206004820181905260248201527f4f776e61626c653a2063616c6c6572206973206e6f7420746865206f776e657260448201526064015b60405180910390fd5b6040517fa9059cbb00000000000000000000000000000000000000000000000000000000815273ffffffffffffffffffffffffffffffffffffffff83811660048301526024820183905284169063a9059cbb906044016020604051808303816000875af1158015610b06573d6000803e3d6000fd5b505050506040513d601f19601f820116820180604052508101906109ba91906124e8565b60008585604051610b3c92919061247e565b604080519182900382207ff7371317c100d5b60d3ccb1738fb0e94c7aded59790cd01aa2aba4798434e7bf6020840152908201819052915060009060600160408051808303601f190181529082905280516020909101207ff44779b90000000000000000000000000000000000000000000000000000000082526004820181905233602483015291507f000000000000000000000000000000000000000000000000000000000000000073ffffffffffffffffffffffffffffffffffffffff169063f44779b9906044016020604051808303816000875af1158015610c25573d6000803e3d6000fd5b505050506040513d601f19601f82011682018060405250810190610c4991906124e8565b610c82576040517fe4fd57ae00000000000000000000000000000000000000000000000000000000815260048101829052602401610a88565b610c8f8787878787611855565b50505050505050565b60005473ffffffffffffffffffffffffffffffffffffffff163314610d19576040517f08c379a000000000000000000000000000000000000000000000000000000000815260206004820181905260248201527f4f776e61626c653a2063616c6c6572206973206e6f7420746865206f776e65726044820152606401610a88565b610d236000611a5a565b565b6000610d688c8c8080601f0160208091040260200160405190810160405280939291908181526020018383808284376000920191909152508d9250611059915050565b60208101518151919250610d7b91612302565b341015610db4576040517f1101129400000000000000000000000000000000000000000000000000000000815260040160405180910390fd5b610e538c8c8080601f016020809104026020016040519081016040528093929190818152602001838380828437600081840152601f19601f820116905080830192505050505050508a6106f08f8f8080601f016020809104026020016040519081016040528093929190818152602001838380828437600081840152601f19601f820116905080830192505050505050508e8e8e8e8e8e8e8e8e6112cc565b60007f000000000000000000000000000000000000000000000000000000000000000073ffffffffffffffffffffffffffffffffffffffff16639f56dac68e8e8e8e8d8a8a6040518863ffffffff1660e01b8152600401610eba97969594939291906123fb565b6020604051808303816000875af1158015610ed9573d6000803e3d6000fd5b505050506040513d601f19601f82011682018060405250810190610efd9190612465565b90508515610f2857610f28888e8e604051610f1992919061247e565b604051809103902089896116ad565b8415610f7157610f718d8d8080601f0160208091040260200160405190810160405280939291908181526020018383808284376000920191909152508c92503391506117949050565b8a73ffffffffffffffffffffffffffffffffffffffff168d8d604051610f9892919061247e565b60405180910390207fa57752fffe37273d48c1e8f7fb8863de4f6b0b7c25ba9e9c52b67b7c8ddce7b58f8f8660000151876020015187604051610fdf959493929190612505565b60405180910390a360208201518251610ff89190612302565b34111561104a576020820151825133916108fc916110169190612302565b61102090346124d5565b6040518115909202916000818181858888f19350505050158015611048573d6000803e3d6000fd5b505b50505050505050505050505050565b6040805180820190915260008082526020820152825160208401206040517fd6e4fa86000000000000000000000000000000000000000000000000000000008152600481018290527f000000000000000000000000000000000000000000000000000000000000000073ffffffffffffffffffffffffffffffffffffffff908116916350e9a7159187917f00000000000000000000000000000000000000000000000000000000000000009091169063d6e4fa8690602401602060405180830381865afa15801561112e573d6000803e3d6000fd5b505050506040513d601f19601f820116820180604052508101906111529190612465565b866040518463ffffffff1660e01b815260040161117193929190612598565b6040805180830381865afa15801561118d573d6000803e3d6000fd5b505050506040513d601f19601f820116820180604052508101906111b191906125bd565b949350505050565b60006111c482611acf565b8251036111de5760036111d683611acf565b101592915050565b60026111d683611acf565b919050565b6109bc838383600080611855565b8051602082012060009061120f836111b9565b80156112c557506040517f96e494e8000000000000000000000000000000000000000000000000000000008152600481018290527f000000000000000000000000000000000000000000000000000000000000000073ffffffffffffffffffffffffffffffffffffffff16906396e494e890602401602060405180830381865afa1580156112a1573d6000803e3d6000fd5b505050506040513d601f19601f820116820180604052508101906112c591906124e8565b9392505050565b895160208b012060009085158015906112f9575073ffffffffffffffffffffffffffffffffffffffff8816155b15611330576040517fd3f605c400000000000000000000000000000000000000000000000000000000815260040160405180910390fd5b808b8b8a8a8a8e8b8b8b6040516020016113539a999897969594939291906126bc565b604051602081830303815290604052805190602001209150509a9950505050505050505050565b60008181526001602052604090205442906113b6907f000000000000000000000000000000000000000000000000000000000000000090612302565b106113f0576040517f0a059d7100000000000000000000000000000000000000000000000000000000815260048101829052602401610a88565b6000908152600160205260409020429055565b60005473ffffffffffffffffffffffffffffffffffffffff163314611484576040517f08c379a000000000000000000000000000000000000000000000000000000000815260206004820181905260248201527f4f776e61626c653a2063616c6c6572206973206e6f7420746865206f776e65726044820152606401610a88565b73ffffffffffffffffffffffffffffffffffffffff8116611527576040517f08c379a000000000000000000000000000000000000000000000000000000000815260206004820152602660248201527f4f776e61626c653a206e6577206f776e657220697320746865207a65726f206160448201527f64647265737300000000000000000000000000000000000000000000000000006064820152608401610a88565b610a0881611a5a565b600081815260016020526040902054429061156c907f000000000000000000000000000000000000000000000000000000000000000090612302565b11156115a7576040517f5320bcf900000000000000000000000000000000000000000000000000000000815260048101829052602401610a88565b60008181526001602052604090205442906115e3907f000000000000000000000000000000000000000000000000000000000000000090612302565b1161161d576040517fcb7690d700000000000000000000000000000000000000000000000000000000815260048101829052602401610a88565b611626836111fc565b61165e57826040517f477707e8000000000000000000000000000000000000000000000000000000008152600401610a88919061273e565b6000818152600160205260408120556224ea008210156109bc576040517f9a71997b00000000000000000000000000000000000000000000000000000000815260048101839052602401610a88565b604080517ff7371317c100d5b60d3ccb1738fb0e94c7aded59790cd01aa2aba4798434e7bf602080830191909152818301869052825180830384018152606083019384905280519101207fe32954eb00000000000000000000000000000000000000000000000000000000909252859073ffffffffffffffffffffffffffffffffffffffff82169063e32954eb9061174d90859088908890606401612751565b6000604051808303816000875af115801561176c573d6000803e3d6000fd5b505050506040513d6000823e601f3d908101601f19168201604052610c8f9190810190612774565b7f000000000000000000000000000000000000000000000000000000000000000073ffffffffffffffffffffffffffffffffffffffff16637a806d6b338385876040516020016117e49190612873565b6040516020818303038152906040526040518563ffffffff1660e01b815260040161181294939291906128b4565b6020604051808303816000875af1158015611831573d6000803e3d6000fd5b505050506040513d601f19601f820116820180604052508101906109ba9190612465565b6000858560405161186792919061247e565b604080519182900382206020601f8901819004810284018101909252878352925082916000916118b491908a908a90819084018382808284376000920191909152508a9250611059915050565b80519091503410156118f2576040517f1101129400000000000000000000000000000000000000000000000000000000815260040160405180910390fd5b6040517f47d2e9fe000000000000000000000000000000000000000000000000000000008152600481018390526024810187905263ffffffff8616604482015267ffffffffffffffff851660648201526000907f000000000000000000000000000000000000000000000000000000000000000073ffffffffffffffffffffffffffffffffffffffff16906347d2e9fe906084016020604051808303816000875af11580156119a5573d6000803e3d6000fd5b505050506040513d601f19601f820116820180604052508101906119c99190612465565b8251909150341115611a1157815133906108fc906119e790346124d5565b6040518115909202916000818181858888f19350505050158015611a0f573d6000803e3d6000fd5b505b837f3da24c024582931cfaf8267d8ed24d13a82a8068d5bd337d30ec45cea4e506ae8a8a3485604051611a4794939291906128ff565b60405180910390a2505050505050505050565b6000805473ffffffffffffffffffffffffffffffffffffffff8381167fffffffffffffffffffffffff0000000000000000000000000000000000000000831681178455604051919092169283917f8be0079c531659141344cd1fd0a4f28419497f9722a3daafe3b4186f6b6457e09190a35050565b8051600090819081905b80821015611ccd576000858381518110611af557611af5612926565b01602001517fff000000000000000000000000000000000000000000000000000000000000001690507f8000000000000000000000000000000000000000000000000000000000000000811015611b5857611b51600184612302565b9250611cba565b7fe0000000000000000000000000000000000000000000000000000000000000007fff0000000000000000000000000000000000000000000000000000000000000082161015611bad57611b51600284612302565b7ff0000000000000000000000000000000000000000000000000000000000000007fff0000000000000000000000000000000000000000000000000000000000000082161015611c0257611b51600384612302565b7ff8000000000000000000000000000000000000000000000000000000000000007fff0000000000000000000000000000000000000000000000000000000000000082161015611c5757611b51600484612302565b7ffc000000000000000000000000000000000000000000000000000000000000007fff0000000000000000000000000000000000000000000000000000000000000082161015611cac57611b51600584612302565b611cb7600684612302565b92505b5082611cc581612955565b935050611ad9565b50909392505050565b600060208284031215611ce857600080fd5b81357fffffffff00000000000000000000000000000000000000000000000000000000811681146112c557600080fd5b600060208284031215611d2a57600080fd5b813567ffffffffffffffff811115611d4157600080fd5b820161014081850312156112c557600080fd5b803573ffffffffffffffffffffffffffffffffffffffff811681146111e957600080fd5b600080600060608486031215611d8d57600080fd5b611d9684611d54565b9250611da460208501611d54565b9150604084013590509250925092565b60008083601f840112611dc657600080fd5b50813567ffffffffffffffff811115611dde57600080fd5b602083019150836020828501011115611df657600080fd5b9250929050565b803563ffffffff811681146111e957600080fd5b803567ffffffffffffffff811681146111e957600080fd5b600080600080600060808688031215611e4157600080fd5b853567ffffffffffffffff811115611e5857600080fd5b611e6488828901611db4565b90965094505060208601359250611e7d60408701611dfd565b9150611e8b60608701611e11565b90509295509295909350565b60008083601f840112611ea957600080fd5b50813567ffffffffffffffff811115611ec157600080fd5b6020830191508360208260051b8501011115611df657600080fd5b8015158114610a0857600080fd5b60008060008060008060008060008060006101208c8e031215611f0c57600080fd5b67ffffffffffffffff808d351115611f2357600080fd5b611f308e8e358f01611db4565b909c509a50611f4160208e01611d54565b995060408d0135985060608d01359750611f5d60808e01611d54565b96508060a08e01351115611f7057600080fd5b50611f818d60a08e01358e01611e97565b909550935060c08c0135611f9481611edc565b9250611fa260e08d01611dfd565b9150611fb16101008d01611e11565b90509295989b509295989b9093969950565b600060208284031215611fd557600080fd5b5035919050565b7f4e487b7100000000000000000000000000000000000000000000000000000000600052604160045260246000fd5b604051601f8201601f1916810167ffffffffffffffff8111828210171561203457612034611fdc565b604052919050565b600067ffffffffffffffff82111561205657612056611fdc565b50601f01601f191660200190565b600082601f83011261207557600080fd5b81356120886120838261203c565b61200b565b81815284602083860101111561209d57600080fd5b816020850160208301376000918101602001919091529392505050565b600080604083850312156120cd57600080fd5b823567ffffffffffffffff8111156120e457600080fd5b6120f085828601612064565b95602094909401359450505050565b60006020828403121561211157600080fd5b813567ffffffffffffffff81111561212857600080fd5b6111b184828501612064565b60008060006040848603121561214957600080fd5b833567ffffffffffffffff81111561216057600080fd5b61216c86828701611db4565b909790965060209590950135949350505050565b6000806000806000806000806000806101208b8d0312156121a057600080fd5b8a3567ffffffffffffffff808211156121b857600080fd5b6121c48e838f01612064565b9b506121d260208e01611d54565b9a5060408d0135995060608d013598506121ee60808e01611d54565b975060a08d013591508082111561220457600080fd5b506122118d828e01611e97565b90965094505060c08b013561222581611edc565b925061223360e08c01611dfd565b91506122426101008c01611e11565b90509295989b9194979a5092959850565b60006020828403121561226557600080fd5b6112c582611d54565b60008083357fffffffffffffffffffffffffffffffffffffffffffffffffffffffffffffffe18436030181126122a357600080fd5b83018035915067ffffffffffffffff8211156122be57600080fd5b602001915036819003821315611df657600080fd5b7f4e487b7100000000000000000000000000000000000000000000000000000000600052601160045260246000fd5b8082018082111561055b5761055b6122d3565b60008083357fffffffffffffffffffffffffffffffffffffffffffffffffffffffffffffffe184360301811261234a57600080fd5b83018035915067ffffffffffffffff82111561236557600080fd5b6020019150600581901b3603821315611df657600080fd5b60006020828403121561238f57600080fd5b81356112c581611edc565b6000602082840312156123ac57600080fd5b6112c582611dfd565b6000602082840312156123c757600080fd5b6112c582611e11565b818352818160208501375060006020828401015260006020601f19601f840116840101905092915050565b60c08152600061240f60c08301898b6123d0565b905073ffffffffffffffffffffffffffffffffffffffff808816602084015286604084015280861660608401525063ffffffff8416608083015267ffffffffffffffff831660a083015298975050505050505050565b60006020828403121561247757600080fd5b5051919050565b8183823760009101908152919050565b60a0815260006124a260a08301898b6123d0565b87602084015286604084015285606084015282810360808401526124c78185876123d0565b9a9950505050505050505050565b8181038181111561055b5761055b6122d3565b6000602082840312156124fa57600080fd5b81516112c581611edc565b60a08152600061251960a0830187896123d0565b856020840152846040840152836060840152828103608084015260008152602081019150509695505050505050565b60005b8381101561256357818101518382015260200161254b565b50506000910152565b60008151808452612584816020860160208601612548565b601f01601f19169290920160200192915050565b6060815260006125ab606083018661256c565b60208301949094525060400152919050565b6000604082840312156125cf57600080fd5b6040516040810181811067ffffffffffffffff821117156125f2576125f2611fdc565b604052825181526020928301519281019290925250919050565b81835260006020808501808196508560051b810191508460005b878110156126af57828403895281357fffffffffffffffffffffffffffffffffffffffffffffffffffffffffffffffe188360301811261266557600080fd5b8701858101903567ffffffffffffffff81111561268157600080fd5b80360382131561269057600080fd5b61269b8682846123d0565b9a87019a9550505090840190600101612626565b5091979650505050505050565b60006101208c835273ffffffffffffffffffffffffffffffffffffffff808d1660208501528b6040850152808b16606085015250806080840152612703818401898b61260c565b60a0840197909752505092151560c084015263ffffffff9190911660e083015267ffffffffffffffff16610100909101529695505050505050565b6020815260006112c5602083018461256c565b83815260406020820152600061276b60408301848661260c565b95945050505050565b6000602080838503121561278757600080fd5b825167ffffffffffffffff8082111561279f57600080fd5b818501915085601f8301126127b357600080fd5b8151818111156127c5576127c5611fdc565b8060051b6127d485820161200b565b91825283810185019185810190898411156127ee57600080fd5b86860192505b838310156128665782518581111561280c5760008081fd5b8601603f81018b1361281e5760008081fd5b8781015160406128306120838361203c565b8281528d828486010111156128455760008081fd5b612854838c8301848701612548565b855250505091860191908601906127f4565b9998505050505050505050565b60008251612885818460208701612548565b7f2e736e7300000000000000000000000000000000000000000000000000000000920191825250600401919050565b600073ffffffffffffffffffffffffffffffffffffffff80871683528086166020840152808516604084015250608060608301526128f5608083018461256c565b9695505050505050565b6060815260006129136060830186886123d0565b6020830194909452506040015292915050565b7f4e487b7100000000000000000000000000000000000000000000000000000000600052603260045260246000fd5b60007fffffffffffffffffffffffffffffffffffffffffffffffffffffffffffffffff8203612986576129866122d3565b506001019056fea2646970667358221220b958b7a1420f357e69937c59a27360326b53fa7a635094072a0a574601b638e464736f6c63430008110033",
  "linkReferences": {},
  "deployedLinkReferences": {}
}